:020000040800F2
:10000000601900209D140008F9140008F914000874
:10001000F9140008F9140008F914000800000000A1
:10002000000000000000000000000000F9140008BB
:10003000F914000800000000F9140008F914000881
:10004000F9140008F9140008F9140008F91400085C
:10005000F9140008F9140008F9140008F91400084C
:10006000F9140008F9140008F9140008F91400083C
:10007000F9140008F9140008F9140008F91400082C
:10008000F9140008F9140008F9140008F91400081C
:10009000F9140008F9140008F9140008F91400080C
:1000A000F9140008F9140008F9140008F9140008FC
:1000B000F9140008F9140008F9140008F9140008EC
:1000C000F9140008F9140008F9140008F9140008DC
:1000D000F9140008F9140008F9140008F9140008CC
:1000E000F9140008F914000829230008F91400087D
:1000F000F9140008F9140008F9140008F9140008AC
:10010000F9140008F9140008F9140008F91400089B
:10011000F9140008F9140008F9140008F91400088B
:10012000F9140008F9140008F9140008F91400087B
:10013000F9140008F9140008F9140008F91400086B
:10014000F9140008F9140008F9140008392300080C
:10015000F9140008F9140008F9140008F91400084B
:10016000F9140008F9140008F9140008F91400083B
:10017000F9140008F9140008F9140008F91400082B
:10018000F9140008F914000880B485B000AF786055
:100190000023FB607B68DB684FF0FF325A607B68AE
:1001A000DB686FF080425A61FB7B43F08003FB7396
:1001B0007B7B43F008037B737B68DB68FA689A619A
:1001C0001437BD465DF8047B704700BF80B586B02C
:1001D00000AF78600023FB7400237B610023FB6089
:1001E000032002F06DF87B68DB681B69FB607B69AC
:1001F00001337B617A69174B9A4201D9002324E0CD
:10020000FB68DB0FDBB2002BEAD000237B61FB68CD
:1002100043F00103FB607B68DB68FA681A617B6866
:10022000DB681B69FB607B6901337B617A69094B81
:100230009A4200D905E0FB6803F00103DBB2012B11
:10024000EDD0032002F03CF8FB7C18461837BD4681
:1002500080BD00BF400D030080B489B000AFF860DE
:10026000B960FA71BB800023FB76FB68DB78002B5A
:1002700022D100237B610023FB61BB880333002B69
:1002800000DA03339B107B61FB79FA6832339B0001
:1002900013449B683B610023FB6109E0BB681A685B
:1002A0003B691A60FB690133FB61BB680433BB60C7
:1002B000FA697B699A42F1D3FB7E18462437BD4622
:1002C0005DF8047B704700BF80B489B000AFF86070
:1002D000B9601346FB800023FB61FB880333002BCE
:1002E00000DA03339B10BB61FB68D3F8D0307B612D
:1002F0000023FB6109E07B691A68BB681A60FB692F
:100300000133FB61BB680433BB60FA69BB699A4285
:10031000F1D3BB6818462437BD465DF8047B7047AF
:1003200080B487B000AF78600B46FB7000233B6160
:100330000023FB737B680022DA707B6801229A70CD
:100340007B6840229A80FB78012B13D14FF0A043A9
:100350003B617B680122DA727B6808221A707B6835
:1003600004225A707B684FF4A072DA807B68022204
:100370001A7211E0FB78002B0ED1454B3B617B6874
:100380000022DA727B680C221A707B6806225A708F
:100390007B684FF4A062DA803A697B68DA603B6977
:1003A00003F500631A467B681A6100237B611CE039
:1003B0007B695A013B69134403F510631A46796857
:1003C0007B6904339B000B449A607B695A013B694B
:1003D000134403F530631A4679687B6914339B0034
:1003E0000B445A607B6901337B617B685B781A46FA
:1003F0007B699A42DCD83B6903F580631A467B68C7
:100400005A613B6903F588631A467B68C3F8CC20C0
:1004100000237B610FE07B695A013B69134403F5BC
:10042000A0631A4679687B6922339B000B449A606B
:100430007B6901337B617B681B781A467B699A4232
:10044000E9D800237B610FE07B691A033B69134401
:1004500003F580531A4679687B6932339B000B445D
:100460009A607B6901337B617B681B781A467B69E4
:100470009A42E9D83B6903F560631A467B68C3F882
:100480000C21FB7B18461C37BD465DF8047B70478A
:100490000000044080B586B000AF78600023FB7593
:1004A00000233B610023FB600023BB607B681B7A59
:1004B000012B42D17B68DB689B6BFB60BB7B6FF3DE
:1004C0000003BB737B685B7A002B03D0BB7B43F0DC
:1004D0001003BB737B68DB68FA689A6300233B6197
:1004E0007B68DB68DB683B613B7C6FF386133B74A6
:1004F000BB7C6FF38613BB74BB7C6FF34103BB748F
:10050000BB7C6FF3C303BB747B68DB683A69DA605A
:100510007868FFF75BFE7B68DB78012B3DD13B7A87
:10052000052262F344033B723B7A43F020033B72A3
:100530007B68DB68BA689A602FE07B68DB68DB6801
:100540003B613B7C43F040033B747B68DB683A696A
:10055000DA607868FFF73AFE0023FB60BB7B43F06C
:100560000103BB73BB7B43F00403BB73BB7B43F052
:100570000803BB73BB7B43F02003BB737B685B7AD0
:10058000002B03D0BB7B43F01003BB737B68DB689D
:10059000FA689A63142001F0B7FE7B68DB78012BC0
:1005A00010D17B68DB689B68BB603B7A052262F3F5
:1005B00044033B723B7A43F020033B727B68DB6869
:1005C000BA689A60FB7D18461837BD4680BD00BFEB
:1005D00080B485B000AF78600023FB730023BB605C
:1005E0003B7A43F001033B727B68DB687A68D26830
:1005F0009168BA680A439A60FB7B18461437BD4677
:100600005DF8047B704700BF80B485B000AF7860B0
:100610000023FB730023BB603B7A43F001033B7272
:100620007B68DB687A68D2689168BA68D2430A400E
:100630009A60FB7B18461437BD465DF8047B704713
:1006400080B586B000AF786039600023FB7400236A
:100650007B610023FB60FB6843F02003FB603B6889
:10066000DBB203F01F03DAB2FB6862F38A13FB60AC
:100670007B68DB68FA681A617B68DB681B69FB6072
:100680007B6901337B617A69094B9A4200D906E0A4
:10069000FB685B0903F00103DBB2012BECD0032004
:1006A00001F00EFEFB7C18461837BD4680BD00BF2A
:1006B000400D030080B586B000AF78600023FB7466
:1006C00000237B610023FB60FB6843F01003FB60A9
:1006D0007B68DB68FA681A617B68DB681B69FB6012
:1006E0007B6901337B617A69094B9A4200D906E044
:1006F000FB681B0903F00103DBB2012BECD00320E4
:1007000001F0DEFDFB7C18461837BD4680BD00BFFA
:10071000400D030080B584B000AF78600B46FB70DD
:100720000023FB737B68DB68DB68BB60FB7A6FF3DD
:100730004513FB72FB7A6FF38613FB72FB78012B78
:1007400004D1FB7A43F02003FB7206E0FB78002B18
:1007500003D1FB7A43F04003FB727B68DB68BA6825
:10076000DA60322001F0D0FDFB7B18461037BD4621
:1007700080BD00BF80B483B000AF78607B68DB6869
:100780005B6903F0010318460C37BD465DF8047B36
:10079000704700BF80B582B000AF78607868FFF71F
:1007A000E9FF0346012B0CBF00230123DBB21846EF
:1007B0000837BD4680BD00BF80B485B000AF78600B
:1007C0000023FB607B68DB685B69FB607B68DB6840
:1007D0009B69FA681340FB60FB6818461437BD46F6
:1007E0005DF8047B704700BF80B485B000AF7860CF
:1007F0000B46FB707B681B691B68FB60FB7803F092
:100800000303DAB23B7B62F301033B737B681B6932
:10081000FA681A601437BD465DF8047B704700BF64
:1008200080B58CB000AF7860002387F82B300023B0
:100830007B6200233B620023FB610023BB6100233A
:100840007B617B68D3F80C3100221A607B681B69DE
:100850001B683B6297F821306FF3C40387F821309F
:100860007B681B693A6A1A607B68DB7A012B41D18D
:1008700078680321FFF7B8FF7B68DB6880225A6243
:10088000FB8B202262F30F03FB83BB8B802262F37E
:100890000F03BB837B68DB68FA699A62BA8BFB8BB8
:1008A00013449BB23B837B8B802262F30F037B83D9
:1008B0007B68DB68BA69C3F804213A8B7B8B1344ED
:1008C0009BB23B837B8B202262F30F037B837B688D
:1008D000DB68BA69C3F808213A8B7B8B13449BB25F
:1008E0003B837B8B6FF30F037B837B68DB68BA6989
:1008F000C3F80C2178681021FFF7A2FE7868FFF793
:10090000D9FE7B681B6900221A617B681B69002283
:100910005A617B681B694FF0FF329A617B681B69E3
:100920000022DA610023FB623AE07A68FB6A043352
:100930009B0013449B681B687B6297F82730C3F3C6
:10094000C013DBB2002B0ED000237B6297F8273058
:1009500043F0400387F8273097F8273043F0080327
:1009600087F8273001E000237B627A68FB6A043352
:100970009B0013449B687A6A1A607A68FB6A0433A6
:100980009B0013449B6800221A617A68FB6A043357
:100990009B0013449B68FF229A60FB6A0133FB6251
:1009A0007B685B781A46FB6A9A42BED80023FB62DA
:1009B00035E07A68FB6A14339B0013445B681B685C
:1009C000FB60FB7BC3F3C013DBB2002B0AD0002318
:1009D000FB60FB7B43F04003FB73FB7B43F00803AE
:1009E000FB7301E00023FB607A68FB6A14339B0011
:1009F00013445B68FA681A607A68FB6A14339B00D8
:100A000013445B6800221A617A68FB6A14339B0006
:100A100013445B68FF229A60FB6A0133FB627B68C8
:100A20005B781A46FB6A9A42C3D800237B617B7DC0
:100A300043F001037B757B681B697A681269116951
:100A40007A69D24311407A690A431A617B68DB787C
:100A5000012B1BD100233B613B7C43F001033B7422
:100A60003B7C43F002033B743B8A402262F38A03DF
:100A70003B82BB7C43F00103BB747B8A402262F360
:100A800049037B827B681B693A691A63786800F0C6
:100A900007F897F82B3018463037BD4680BD00BFA9
:100AA00080B584B000AF78600023FB730023BB6087
:100AB0007B68DB6800229A617B68DB686FF08042AC
:100AC0005A617868FFF760FB7B68DB78002B03D105
:100AD0003B7A43F010033B727B7A43F008037B724E
:100AE0007B7A43F010037B727B7A43F020037B72A6
:100AF000BB7A43F00403BB72BB7A43F00803BB72BA
:100B00003B7A43F008033B72BB7A43F01003BB729D
:100B1000BB7A43F02003BB727B68DB687A68D268DB
:100B20009169BA68D2431140BA680A439A61FB7B63
:100B300018461037BD4680BD80B485B000AF7860E0
:100B40000023FB737B681B699B68BB603B7AC3F324
:100B50004103DBB2022B09D0032B04D0012B02D0BE
:100B60000323FB7305E00223FB7302E00123FB7305
:100B700000BFFB7B18461437BD465DF8047B704709
:100B800080B487B000AF78600023FB750023BB60A2
:100B90007B681B699B683B617B689B691B68FB608A
:100BA0003B7CC3F34103DBB2022B04D0BB896FF360
:100BB0000A03BB8105E0BB89032262F30A03BB8100
:100BC00000BF7B689B69FA681A607B7A43F0010377
:100BD0007B727B681B697A6812695168BA68D24374
:100BE0001140BA680A435A60FB7D18461C37BD465F
:100BF0005DF8047B704700BF80B487B000AF7860B9
:100C000039600023FB740023FB600023BB603B685A
:100C10005B78012B0FD13B681B787A6804339B000B
:100C200013449B687B613B681B78012202FA03F343
:100C30009BB23B810EE03B681B787A6814339B00C3
:100C400013445B687B613B681B78012202FA03F363
:100C50009BB27B817B691B68FB607B7BC3F3C0130A
:100C6000DBB2002B27D13B689B689BB2C3F30A031E
:100C70009AB2BB8962F30A03BB813B68DB7803F05D
:100C80000303DAB2BB7B62F38303BB733B68DB888D
:100C9000DBB203F00F03DAB2FB8962F38913FB8145
:100CA000FB7B43F01003FB737B7B43F080037B7380
:100CB000FA687B691A607B681B697A681269D16976
:100CC000BA680A43DA61FB7C18461C37BD465DF8FA
:100CD000047B704780B487B000AF78603960002330
:100CE000FB740023FB600023BB603B685B78012B37
:100CF0000FD13B681B787A6804339B0013449B68D0
:100D00007B613B681B78012202FA03F39BB23B81B3
:100D10000EE03B681B787A6814339B0013445B68D1
:100D20007B613B681B78012202FA03F39BB27B8153
:100D30007B7B6FF3C7137B73FA687B691A607B68F0
:100D40001B697A681269D169BA68D2430A40DA61CC
:100D5000FB7C18461C37BD465DF8047B704700BF1E
:100D600080B588B000AF786039600023FB7700233E
:100D7000BB6100237B6100233B613B685B78012BF7
:100D800040F0AB803B681B787A6804339B001344C7
:100D90009B681B687B613B681B787A6804339B0007
:100DA00013449B681B693B613B685B69002B09D15D
:100DB0003B696FF312033B617B8A012262F3CC0330
:100DC0007B8222E03B685B69C3F312023B6962F3FA
:100DD00012033B613B685A693B689B6813445A1E87
:100DE0003B689B68B2FBF3F39BB2C3F309039AB26F
:100DF0007B8A62F3CC037B823B68DB78012B04D1D6
:100E0000FB7C012262F34613FB743B681B787A6813
:100E100004339B0013449B683A691A617B68DB7852
:100E2000012B0AD13B681B787A6804339B0013447A
:100E30009B683A6812695A6115E03B68DB78012BC0
:100E400011D03B685B69002B0DD03B681B780122F9
:100E500002FA03F3BB617B681B697A681269516B04
:100E6000BA690A435A633B68DB78012B14D17B686B
:100E70001B699B68FB60FB68C3F30D239BB203F007
:100E80000103002B04D1FB7D43F02003FB7503E03D
:100E9000FB7D43F01003FB75FB7D43F00403FB7502
:100EA000FB7D43F08003FB753B681B787A68043355
:100EB0009B0013449B687A691A603B68DB78012BBE
:100EC00040F088803B68D9683B681A783B685B696A
:100ED0009BB27868FFF7C0F97CE03B681B787A68C2
:100EE00014339B0013445B681B687B613B681B7871
:100EF0007A6814339B0013445B681B693B613B6851
:100F00005B69002B0DD13B689B68C3F312023B6900
:100F100062F312033B617B8A012262F3CC037B8282
:100F20001FE03B685A693B689B6813445A1E3B6844
:100F30009B68B2FBF3F39BB2C3F309039AB27B8ABB
:100F400062F3CC037B827B8AC3F3C9039BB23A680A
:100F5000926802FB03F3C3F312023B6962F31203CC
:100F60003B613B681B787A6814339B0013445B68D1
:100F70003A691A617B68DB78012B09D13B681B78E1
:100F80007A6814339B0013445B683A6812695A61AB
:100F90003B68DB78012B0CD13B685B79002B04D0DC
:100FA000FB7D43F02003FB7503E0FB7D43F0100362
:100FB000FB75FB7D43F00403FB75FB7D43F0800371
:100FC000FB753B681B787A6814339B0013445B689D
:100FD0007A691A60FB7F18462037BD4680BD00BF86
:100FE00080B489B000AF786039600023FB770023BC
:100FF000BB6100233B610023BB603B685B78012B36
:101000006FD17B689B697B617B691B683B617B69F6
:101010001B69BB603B685B69002B09D13B7A6FF3AE
:1010200006033B72BB7A012262F3C403BB7223E066
:101030003B685A693B689B689A420ED93B689A683C
:101040003B685A613B689B68DBB203F07F03DAB20E
:101050003B7A62F306033B7209E03B685B69DBB2F3
:1010600003F07F03DAB23B7A62F306033B72BB7A8A
:10107000012262F3C403BB72BA687B691A617B68A0
:10108000DB78012B09D13B681B787A6804339B001D
:1010900013449B683A6812695A61FB7C43F004036D
:1010A000FB74FB7C43F08003FB743A697B691A6034
:1010B0007B68DB78002B75D13B685B69002B71D0B6
:1010C0003B681B78012202FA03F3BA691343BB6140
:1010D0007B681B697A681269516BBA690A435A6363
:1010E00060E03B681B787A6814339B0013445B68AC
:1010F0001B683B613B681B787A6814339B00134480
:101100005B681B69BB603B685B69002B0FD13B6868
:101110009B68DBB203F07F03DAB23B7A62F306032B
:101120003B72BB7A012262F3C403BB7212E03B68DC
:101130009A683B685A613B689B68DBB203F07F03A7
:10114000DAB23B7A62F306033B72BB7A012262F3A6
:10115000C403BB723B681B787A6814339B0013444A
:101160005B68BA681A617B68DB78012B09D13B6840
:101170001B787A6814339B0013445B683A681269E1
:101180005A61FB7C43F00403FB74FB7C43F0800357
:10119000FB743B681B787A6814339B0013445B68CC
:1011A0003A691A60FB7F18462437BD465DF8047B18
:1011B000704700BF80B487B000AF7860396000230B
:1011C000FB750023FB603B685B78012B1CD13B68FF
:1011D0001B787A6804339B0013449B683B613B692E
:1011E0001B68FB60FB7BC3F3C013DBB2002B03D097
:1011F000FB7B43F04003FB73BB7B43F02003BB73DB
:10120000FA683B691A6011E03B681B787A6814330E
:101210009B0013445B683B613B691B68FB60BB7BC5
:1012200043F02003BB73FA683B691A60FB7D1846E4
:101230001C37BD465DF8047B704700BF80B487B0A3
:1012400000AF786039600023FB740023FB603B68CB
:101250005B78012B08D13B681B787A6804339B00CC
:1012600013449B687B6107E03B681B787A68143302
:101270009B0013445B687B617B691B68FB60BB7BE5
:101280006FF34513BB733B68DB78032B03D03B68DC
:10129000DB78022B03D1FB7B43F01003FB73FA686E
:1012A0007B691A60FB7C18461C37BD465DF8047BE1
:1012B000704700BF80B485B000AF78607B681B6961
:1012C0009B69FB607B681B69DB69FA681340FB6004
:1012D000FB681B0C18461437BD465DF8047B70474D
:1012E00080B485B000AF78600B46FB70FB787A68FD
:1012F00014339B0013445B689B68FB607B681B692D
:101300005B69FA681340FB60FB6818461437BD46FA
:101310005DF8047B704700BF80B485B000AF786093
:101320007B681B699B69FB607B681B69DB69FA68EA
:101330001340FB60FB689BB218461437BD465DF84E
:10134000047B704780B487B000AF786000233B61B6
:10135000FB7C43F0C003FB74BB7C012262F3C4033B
:10136000BB743B7C182262F306033B747B685B6DA5
:101370003A691A617B68DB78012B16D10023FB6088
:101380007B685B6D7A6802F2CC525A617B685B6D58
:101390001B68FB60FB7B43F08003FB734FF08023F3
:1013A000FB607B685B6DFA681A601C37BD465DF8B0
:1013B000047B704780B400AF034B05221A70BD4612
:1013C0005DF8047B704700BF0000002080B483B04C
:1013D00000AF0346FB71044B05221A700C37BD4663
:1013E0005DF8047B704700BF0000002080B400AFB0
:1013F000034B06221A70BD465DF8047B704700BFA0
:101400000000002080B400AF034B05221A70BD46D7
:101410005DF8047B704700BF0000002080B400AF7F
:10142000034B05221A70BD465DF8047B704700BF70
:101430000000002080B400AF034B05221A70BD46A7
:101440005DF8047B704700BF0000002080B400AF4F
:10145000034B05221A70BD465DF8047B704700BF40
:101460000000002080B582B000AF0820012100F00C
:101470009DFA4FF470433B600023BB7101233B7125
:101480000023FB7103237B713B460348194600F0A0
:1014900027FC0837BD4680BD000C024080B582B0F5
:1014A00000AF104B7B60104B3B6007E03B681A1DA0
:1014B0003A607A68111D796012681A603A680B4BBD
:1014C0009A42F3D30A480B494FF000028842B8BF52
:1014D00040F8042BFFF6FAAF00F03AFA0837BD46A1
:1014E00080BD00BF54410008000000202001002002
:1014F000200100206011002080B400AFFEE700BF93
:1015000080B584B000AFF8607A603B600B46FB7238
:10151000F86800F067FEF86800F01CF8FB683A68AD
:10152000C3F8E425FB68BA69C3F8E825FB687A6864
:10153000C3F8EC25FB7AF868194602F023FBFB6838
:10154000D3F8E8351B689847F86800F0A1FE10371B
:10155000BD4680BD80B483B000AF786000231846DC
:101560000C37BD465DF8047B704700BF80B584B082
:1015700000AF786007F108037868194601F0C2FAF5
:101580003B7A03F01F03012B0AD0022B0FD0002B54
:1015900014D107F108037868194600F0D5FE16E06B
:1015A00007F108037868194600F01EFF0FE007F105
:1015B00008037868194600F04BFF08E03B7A23F0F7
:1015C0007F03DBB27868194602F064FC00BF002399
:1015D00018461037BD4680BD80B584B000AF786036
:1015E0000B46FB70FB78002B45D17B6803F55D73E0
:1015F000FB607B6893F81131032B4FD1FB68DA69EC
:10160000FB689B689A4221D9FB68DA69FB689B6892
:10161000D21AFB68DA617B68DB78012B06D1FB68A4
:10162000DA68FB689B681A44FB68DA60FB68DA6872
:10163000FB689968FB68DB69994238BF0B469BB22F
:10164000786811461A4602F00FFD27E07B68D3F850
:10165000E4351B69002B0AD07B6893F81231032B09
:1016600005D17B68D3F8E4351B69786898477868BA
:1016700002F00EFD12E07B68D3F8E4359B69002B85
:101680000CD07B6893F81231032B07D17B68D3F819
:10169000E4359B69FA787868114698470023184624
:1016A0001037BD4680BD00BF80B584B000AF786004
:1016B0000B46FB70FB78002B6CD17B6803F58E73B7
:1016C000FB607B6893F81131022B56D1FB68DA6915
:1016D000FB689B689A421CD9FB68DA69FB689B68C7
:1016E000D21AFB68DA617B68DB78012B06D1FB68D4
:1016F000DA68FB689B681A44FB68DA60FB68DA68A2
:10170000FB68DB699BB2786811461A4602F078FCE8
:1017100033E0FB681B6AFA689268B3FBF2F102FBE4
:1017200001F29B1A002B14D1FB681A6AFB689B68B4
:101730009A420ED3FB681A6AFB685B6A9A4208D227
:1017400078680021002202F05BFCFB6800225A62EC
:1017500013E07B68D3F8E435DB68002B0AD07B68A4
:1017600093F81231032B05D17B68D3F8E435DB689D
:1017700078689847786802F0A3FC7B6893F8163184
:10178000012B1AD1786800F01DF87B68002283F8DD
:10179000162112E07B68D3F8E4355B69002B0CD08E
:1017A0007B6893F81231032B07D17B68D3F8E435BB
:1017B0005B69FA7878681146984700231846103715
:1017C000BD4680BD80B483B000AF78607B681B6984
:1017D000044A12685A60002318460C37BD465DF86B
:1017E000047B70475001002080B582B000AF786064
:1017F000786800214022002302F046FA78688021B0
:101800004022002302F040FA7B68012283F8122173
:101810007B68D3F8E8355B687A6892781046984719
:10182000002318460837BD4680BD00BF80B582B092
:1018300000AF78607B68D3F8E8351B6998477B6810
:1018400093F813217B6883F812217B68032283F8C5
:101850001221002318460837BD4680BD80B582B0EE
:1018600000AF78607B6893F812217B6883F81321BE
:101870007B68042283F812217B68D3F8E835DB68A3
:101880009847002318460837BD4680BD80B582B012
:1018900000AF78607B68D3F8E435DB69002B05D0B6
:1018A0007B68D3F8E435DB697868984700231846ED
:1018B0000837BD4680BD00BF80B582B000AF7860FC
:1018C0000B46FB707B68D3F8E4351B68FA787868C0
:1018D000114698477B68D3F8E8359B689847002302
:1018E00018460837BD4680BD80B582B000AF78602D
:1018F0000B46FB707B68D3F8E4355B68FA78786850
:1019000011469847002318460837BD4680BD00BFE2
:1019100080B582B000AF78607B68D3F8E4351B6A8D
:1019200078689847002318460837BD4680BD00BF39
:1019300080B582B000AF78607B68D3F8E4355B6A2D
:1019400078689847002318460837BD4680BD00BF19
:1019500080B582B000AF00F09FFBFFF783FD00F081
:1019600007F900F0A9F90346062B13D10E4B4FF4EB
:1019700080521A830C4B4FF480425A83FB1D184649
:1019800000F022F90346032B0DD1FB79184600F035
:1019900051F9E6E7044B4FF480525A83024B4FF45F
:1019A00080421A83DDE7DCE7000C024080B483B09C
:1019B00000AF78600B46FB70FB78002B06D0094B1C
:1019C000084A116B7A680A431A6306E0054B054A18
:1019D000116B7A68D2430A401A630C37BD465DF832
:1019E000047B70470038024080B483B000AF786059
:1019F0000B46FB70FB78002B06D0094B084A516B55
:101A00007A680A435A6306E0054B054A516B7A68C7
:101A1000D2430A405A630C37BD465DF8047B7047D9
:101A20000038024080B483B000AF78600B46FB7092
:101A3000FB78002B06D0094B084A516C7A680A43A0
:101A40005A6406E0054B054A516C7A68D2430A4055
:101A50005A640C37BD465DF8047B7047003802407D
:101A600080B483B000AF03463960FB713B6812223B
:101A70001A80034B18460C37BD465DF8047B70474F
:101A80006C00002080B483B000AF03463960FB7166
:101A90003B6804221A80034B18460C37BD465DF89C
:101AA000047B70478C00002080B582B000AF0346F5
:101AB0003960FB71044805493A6801F07DF8034B31
:101AC00018460837BD4680BDF0400008D407002006
:101AD00080B582B000AF03463960FB710448054908
:101AE0003A6801F069F8034B18460837BD4680BDD7
:101AF00014410008D407002080B582B000AF03462F
:101B00003960FB71044805493A6801F055F8034B08
:101B100018460837BD4680BD28410008D40700207C
:101B200080B582B000AF03463960FB7104480549B7
:101B30003A6801F041F8034B18460837BD4680BDAE
:101B400038410008D407002080B582B000AF0346BA
:101B50003960FB71044805493A6801F02DF8034BE0
:101B600018460837BD4680BD44410008D407002010
:101B700080B582B002AF0C4B00930C4801210C4A97
:101B80000C4BFFF7BDFC0C4B00221A600B4B0022E4
:101B90001A600B4B00221A600A4B01221A700023B4
:101BA0001846BD4680BD00BF04000020E0010020B3
:101BB00050000020F4000020540100205C010020AF
:101BC000580100202001002080B483B000AF78606D
:101BD000154B1B68002B1DD0144B1B687F2B02D9A3
:101BE000124B00221A60114B1B68114AD25C7B68B1
:101BF0001A700E4B1B680E4A0021D1540B4B1B6808
:101C00005A1C0A4B1A60084B1B685A1E064B1A6076
:101C1000032303E07B6800221A70042318460C3764
:101C2000BD465DF8047B7047580100205C01002030
:101C30006001002080B584B000AF0346FB71FB79E2
:101C4000DBB2FB7307F10F031846012100F0D8F94E
:101C5000002318461037BD4680BD00BF80B483B056
:101C600000AF0346FB71114B1B687F2B17D8104B3D
:101C70001B687F2B02D90E4B00221A600C4B1B688D
:101C80000C4AF979D1540A4B1B685A1C084B1A604C
:101C9000064B1B685A1C054B1A60002300E0022308
:101CA00018460C37BD465DF8047B7047580100208C
:101CB000540100206001002080B400AF064B1B7867
:101CC000002B02D0054B1B7800E001231846BD46CF
:101CD0005DF8047B704700BF200100200000002059
:101CE00080B487B000AF7860396000237B61002347
:101CF0003B610023FB6000237B6176E07B6901226E
:101D000002FA03F33B613B681A683B691340FB60CE
:101D1000FA683B699A4265D17B681A687B695B0007
:101D2000032101FA03F3DB431A407B681A607B68E6
:101D30001A683B681B7919467B695B0001FA03F35B
:101D40001A437B681A603B681B79012B03D03B6800
:101D50001B79022B2ED17B689A687B695B0003217B
:101D600001FA03F3DB431A407B689A607B689A6848
:101D70003B685B7919467B695B0001FA03F31A4300
:101D80007B689A607B685A687B699BB2012101FA83
:101D900003F3DB431A407B685A607B685A683B68F0
:101DA0009B7919467B699BB201FA03F39BB21A43F4
:101DB0007B685A607B68DA687B699BB25B000321B1
:101DC00001FA03F3DB431A407B68DA607B68DA6868
:101DD0003B68DB7919467B695B0001FA03F31A4320
:101DE0007B68DA607B6901337B617B690F2B85D966
:101DF0001C37BD465DF8047B704700BF80B485B0DA
:101E000000AF786013460A467A807B700023FB603F
:101E10000023BB607A787B8803F007039B0002FAFB
:101E200003F3FB607B88DB089BB21A467B88DB08E8
:101E30009BB219467B68083153F821107B8803F068
:101E400007039B000F2000FA03F3DB4319407B6874
:101E5000083243F822107B88DB089BB21A467B6865
:101E6000083253F82220FB681343BB607B88DB08F1
:101E70009BB21A467B680832B96843F822101437BF
:101E8000BD465DF8047B704780B400AF0023184660
:101E9000BD465DF8047B704780B400AF0023184650
:101EA000BD465DF8047B704780B485B000AFF86034
:101EB000B9607A60FB68232B00F2988001A252F887
:101EC00023F000BFED1F0008ED1F0008ED1F000804
:101ED000ED1F0008ED1F0008ED1F0008ED1F0008B2
:101EE000ED1F0008ED1F0008ED1F0008ED1F0008A2
:101EF000ED1F0008ED1F0008ED1F0008ED1F000892
:101F0000ED1F0008ED1F0008ED1F0008ED1F000881
:101F1000ED1F0008ED1F0008ED1F0008ED1F000871
:101F2000ED1F0008ED1F0008ED1F0008ED1F000861
:101F3000ED1F0008ED1F0008ED1F0008ED1F000851
:101F4000ED1F0008551F0008991F0008ED1F00082D
:101F5000ED1F0008BB681B781A46BB6801331B786D
:101F60001B021A43BB6802331B781B041A43BB686D
:101F700003331B781B0613431A46204B1A60BB68B9
:101F80001A791E4B1A71BB685A791C4B5A71BB687F
:101F90009A791A4B9A712AE0184B1B68DAB2BB681F
:101FA0001A70BB680133154A1268120AD2B21A704D
:101FB000BB680233114A1268120CD2B21A70BB68A5
:101FC00003330E4A1268120ED2B21A70BB68043381
:101FD0000A4A12791A70BB680533084A52791A7096
:101FE000BB680633054A92791A7000E000BF0023EF
:101FF00018461437BD465DF8047B704790000020FA
:1020000080B485B000AF786039600023FB6017E0D2
:10201000114B1B687968FA680A4411780F4AD15449
:102020000D4B1B685A1C0C4B1A600B4B1B68B3F50D
:10203000006F02D3084B00221A60FB680133FB607B
:10204000FA683B689A42E3D3002318461437BD462A
:102050005DF8047B704700BF380100206009002054
:1020600080B584B000AF786039600023FB6009E080
:102070007A68FB6813441B781846FFF7EFFDFB688E
:102080000133FB60FA683B689A42F1D3002318469B
:102090001037BD4680BD00BF80B500AF114B114A5F
:1020A000126842F001021A600E4B00229A600D4A3B
:1020B0000C4B1B6823F0847323F480331360094BAB
:1020C000094A5A60074B074A126822F480221A60B4
:1020D000044B0022DA6000F00BF8044B4FF0006272
:1020E0009A6080BD003802401030002400ED00E00E
:1020F00080B483B000AF00237B6000233B60354B8E
:10210000344A126842F480321A60324B1B6803F47E
:1021100000333B607B6801337B603B68002B03D15D
:102120007B68B3F5A06FF0D12A4B1B6803F4003332
:10213000002B02D001233B6001E000233B603B68A1
:10214000012B42D1234B234A126C42F080521A6475
:10215000214B214A126842F480421A601D4B1D4AED
:1021600092689A601B4B1B4A926842F400429A6044
:10217000184B184A926842F4A0529A60154B174ABD
:102180005A60144B134A126842F080721A6000BF02
:10219000104B1B6803F00073002BF9D0104B40F27A
:1021A00005621A600B4B0B4A926822F003029A6098
:1021B000084B084A926842F002029A6000BF054B41
:1021C0009B6803F00C03082BF9D10C37BD465DF872
:1021D000047B7047003802400070004019544007EB
:1021E000003C024080B584B000AF7860012001213E
:1021F000FFF7DCFB4FF4C053BB6003237B73022368
:102200003B730023BB730023FB7307F108031F48D4
:102210001946FFF765FD1D480B210A22FFF7EEFD69
:102220001A480C210A22FFF7E9FD4FF40073BB6046
:1022300003237B7300233B730123BB730023FB73D6
:1022400007F1080311481946FFF74AFD4FF4806370
:10225000BB600123BB730123FB7303237B7307F173
:1022600008030A481946FFF73BFD08480A210A22DD
:10227000FFF7C4FD4FF480400121FFF7D3FB80201E
:102280000121FFF7B1FB1037BD4680BD00000240C1
:1022900080B584B000AF78604FF4C06001F002FCFC
:1022A00043233B7301237B730323BB730123FB7322
:1022B00007F10C03184601F007FC1037BD4680BD3E
:1022C00080B485B000AF78600023FB607A68134665
:1022D0001B019B1ADB001A460A4BA3FB0213D21AFE
:1022E000520813449B08BB60FB680133FB60FA682B
:1022F000BB689A4200D900E0F6E71437BD465DF8A6
:10230000047B70472549922480B582B000AF786085
:102310007B684FF47A7202FB03F31846FFF7D0FF95
:102320000837BD4680BD00BF80B500AF4FF48020A8
:1023300001F0AAFB80BD00BF80B500AF014800F0EE
:1023400091FC80BDE001002080B584B000AF7860D2
:1023500039600023FB733B685B78092B39D801A2F5
:1023600052F823F0B5230008C9230008D32300083E
:10237000BF230008D3230008972300088D230008FB
:10238000D3230008AB230008A1230008786839682C
:1023900000F036F922E07868396800F00DFA1DE0A7
:1023A0007868396800F046FA18E07868396800F013
:1023B000BBFA13E07868396800F0E6FA0EE0786856
:1023C000396800F00BFB09E07868396800F072FBAF
:1023D00004E07868396800F0DBFB00BFFB7B18463F
:1023E0001037BD4680BD00BF80B584B000AF7860B7
:1023F00039600023FB737B6893F81231032B1CD1E7
:102400003B689B88DBB2012B11D87B68D3F8E4359D
:102410009B687868396898473B68DB88002B0BD14C
:10242000FB7B002B08D1786801F032FE0AE0786867
:10243000396800F0ADFB05E004E07868396800F029
:10244000A7FB00BFFB7B18461037BD4680BD00BF11
:1024500080B584B000AF786039600023FB733B68BF
:102460009B88BB733B685B78012B39D0032B02D070
:10247000002B6BD0BCE07B6893F81231022B02D0AA
:10248000032B0DD026E0BB7B002B08D0BB7B802B21
:1024900005D0BB7B7868194601F0FCFC1FE01EE00C
:1024A0003B685B88002B0AD1BB7B002B07D0BB7B32
:1024B000802B04D0BB7B7868194601F0EBFC7B686D
:1024C000D3F8E4359B68786839689847786801F0F4
:1024D000DFFD04E07868396800F05AFB00BF87E050
:1024E0007B6893F81231022B02D0032B0DD027E02A
:1024F000BB7B002B08D0BB7B802B05D0BB7B7868D7
:10250000194601F0C7FC20E01FE03B685B88002B08
:1025100015D1BB7B002B0ED0BB7B802B0BD0BB7BA4
:102520007868194601F0F2FC7B68D3F8E4359B68C3
:10253000786839689847786801F0AAFD05E004E0FA
:102540007868396800F024FB00BF51E07B6893F89D
:102550001231022B02D0032B0DD043E0BB7B002BAA
:1025600008D0BB7B802B05D0BB7B7868194601F077
:1025700091FC3CE03BE0BB7B5BB2002B15DABB7B04
:1025800003F07F02796813469B001344DB000B4481
:1025900003F58C739B79002B03D0184B01221A6032
:1025A0001AE0164B00221A6016E0BB7B5BB2002BD0
:1025B00012DBBA7B796813469B001344DB000B44A3
:1025C00003F55C739B79002B03D00C4B01221A603E
:1025D00002E00A4B00221A6078680849022201F0E2
:1025E000EFFC04E07868396800F0D2FA00BF00BF61
:1025F000FB7B18461037BD4680BD00BF240100207C
:1026000080B584B000AF786039603B685B881B0A96
:102610009BB2013B062B00F2B18001A252F823F0DD
:102620003D2600086F260008992600087D2700082F
:102630007D27000869270008732700087B68D3F806
:10264000EC351B687A68917807F10A020846114652
:102650009847F8603B68DB88402B04D07B6893F890
:102660001231012B02D108237B818CE08BE07B6847
:10267000D3F8E4359B6A7A68917807F10A02084634
:1026800011469847F860FB68013302221A707B6894
:10269000FA68C3F8F02576E03B685B88DBB2052B6F
:1026A0005CD801A252F823F0C1260008DB260008FE
:1026B000F52600080F2700082927000843270008EF
:1026C0007B68D3F8EC355B687A68917807F10A0289
:1026D000084611469847F86045E07B68D3F8EC352A
:1026E0009B687A68917807F10A0208461146984774
:1026F000F86038E07B68D3F8EC35DB687A6891786D
:1027000007F10A02084611469847F8602BE07B68FB
:10271000D3F8EC351B697A68917807F10A0208460C
:1027200011469847F8601EE07B68D3F8EC355B698A
:102730007A68917807F10A02084611469847F860CE
:1027400011E07B68D3F8EC359B697A68917807F1E2
:102750000A02084611469847F86004E0786839682C
:1027600000F016FA24E00EE07868396800F010FAFC
:102770001EE07868396800F00BFA19E0786839686B
:1027800000F006FA14E07B89002B11D03B68DB884F
:10279000002B0DD03B68DA887B899A4238BF1346FC
:1027A0009BB27B817B897868F9681A4601F008FC46
:1027B0001037BD4680BD00BF80B584B000AF7860E3
:1027C00039603B689B88002B2DD13B68DB88002B50
:1027D00029D13B685B88DBB203F07F03FB737B6826
:1027E00093F81231032B04D17868396800F0D0F9DE
:1027F00018E07B68FA7B83F81421FB7B7868194624
:1028000001F0C0FB786801F043FCFB7B002B04D097
:102810007B68022283F8122104E07B68012283F89E
:10282000122104E003E07868396800F0B1F910374C
:10283000BD4680BD80B582B000AF786039603B682E
:102840005B88DAB2374B1A70364B1B78012B04D9F0
:102850007868396800F09CF960E07B6893F8123181
:10286000022B02D0032B1BD053E02E4B1B78002BE6
:1028700012D02C4B1A787B6883F810217B680322D6
:1028800083F81221274B1B7878681946FFF714F854
:10289000786801F0FDFB41E0786801F0F9FB3DE06C
:1028A000204B1B78002B12D17B68022283F8122167
:1028B0001C4B1A787B6883F810211A4B1B787868B8
:1028C0001946FFF711F8786801F0E2FB20E07B6819
:1028D00093F81021134B1B789A4215D07B6893F81C
:1028E000103178681946FEF7FFFF0E4B1A787B68A7
:1028F00083F810210B4B1B7878681946FEF7DCFF34
:10290000786801F0C5FB03E0786801F0C1FB05E0E1
:1029100004E07868396800F03BF900BF0837BD462D
:1029200080BD00BF3001002080B582B000AF78606C
:1029300039603B68DB88012B04D07868396800F087
:1029400027F91BE07B6893F81231022B02D0032B8E
:1029500006D00EE078680B49012201F031FB0DE052
:102960007B6803F5887378681946012201F028FB1B
:1029700004E07868396800F00BF900BF0837BD46FD
:1029800080BD00BF2801002080B582B000AF786014
:1029900039607B6893F81231023B012B13D80E4B40
:1029A00001221A607B68D3F81831002B05D00A4B3E
:1029B0001B6843F00202084B1A607868064902223D
:1029C00001F0FEFA04E07868396800F0E1F800BF31
:1029D0000837BD4680BD00BF2C01002080B584B003
:1029E00000AF786039600023FB733B685B88012B84
:1029F0000ED17B680122C3F818217B68D3F8E43537
:102A00009B68786839689847786801F041FB4BE02B
:102A10003B685B88022B47D13B689B88DBB2002B6D
:102A200042D17B681B695B68BB603B689B881B0A63
:102A30009BB2FB73FB7B013B042B2BD801A252F80A
:102A400023F000BF592A0008652A0008712A0008EF
:102A50007D2A0008892A00083B7A012262F30613C6
:102A60003B7217E03B7A022262F306133B7211E0DD
:102A70003B7A032262F306133B720BE03B7A04229B
:102A800062F306133B7205E03B7A052262F30613FC
:102A90003B7200BF064BBA681A607B68012283F85C
:102AA0001621786801F0F4FA1037BD4680BD00BFEA
:102AB0005001002080B582B000AF786039607B683B
:102AC00093F81231023B012B13D83B685B88012B32
:102AD0000ED17B680022C3F818217B68D3F8E43557
:102AE0009B68786839689847786801F0D1FA05E002
:102AF00004E07868396800F04BF800BF0837BD463D
:102B000080BD00BF80B483B000AF786039607B685F
:102B100093F8CC253B681A707B6893F8CD253B6809
:102B20005A707B6893F8CE351A467B6893F8CF3598
:102B30001B029BB213449AB23B685A807B6893F89D
:102B4000D0351A467B6893F8D1351B029BB21344EB
:102B50009AB23B689A807B6893F8D2351A467B68B4
:102B600093F8D3351B029BB213449AB23B68DA80C8
:102B70003B68DB881A467B68C3F840217B680122EA
:102B800083F811210C37BD465DF8047B704700BF08
:102B900080B582B000AF786039607868802101F03C
:102BA00079F97868002101F075F97868FEF7CAFBB9
:102BB0000837BD4680BD00BF80B586B000AFF86065
:102BC000B9607A600023FB75FB68002B2FD0F86892
:102BD00000F030F8034601339BB25B009AB27B6889
:102BE0001A80FB7D5A1CFA75BA6813447A681288F9
:102BF000D2B21A70FB7D5A1CFA75BA6813440322CC
:102C00001A7010E0FB7D5A1CFA75BA681A44FB680A
:102C1000591CF9601B781370FB7D5A1CFA75BA6851
:102C2000134400221A70FB681B78002BEAD1183776
:102C3000BD4680BD80B485B000AF78600023FB73D3
:102C400005E0FB7B0133FB737B6801337B607B68B2
:102C50001B78002BF5D1FB7B18461437BD465DF879
:102C6000047B704780B586B000AF786000237B613D
:102C70007868FDF78FFD0346002B00F09C80786894
:102C8000FDF79AFD03463B613B69002B01D1002310
:102C900092E0BB7CC3F3C003DBB2002B06D07868A4
:102CA00000F0FAF903467A6913437B61BB7CC3F3F6
:102CB0008003DBB2002B06D0786800F01FF90346D2
:102CC0007A6913437B613B7CC3F34003DBB2002B87
:102CD00009D00023FB603B7B43F002033B737B681E
:102CE000DB68FA685A61FB7CC3F3C013DBB2002BCC
:102CF00006D0786800F064F803467A6913437B6174
:102D00007B7CC3F3C003DBB2002B06D0786800F0F5
:102D100097F803467A6913437B613B7CC3F3C00396
:102D2000DBB2002B06D0786800F05EFA03467A69C1
:102D300013437B613B7CC3F30013DBB2002B06D053
:102D4000786800F06BFA03467A6913437B617B7CF9
:102D5000C3F30013DBB2002B06D0786800F052FBFF
:102D600003467A6913437B617B7CC3F34013DBB278
:102D7000002B06D0786800F0DBFB03467A6913432A
:102D80007B61BB7CC3F30013DBB2002B06D07868F9
:102D900000F00AFC03467A6913437B61BB7CC3F3F2
:102DA0004013DBB2002B06D0786800F017FC034616
:102DB0007A6913437B617B6918461837BD4680BD2D
:102DC00080B586B000AF78607B689B7A002B11D00D
:102DD0007B6803F586731B68FB603B7B6FF34103E5
:102DE0003B733B7B6FF300033B737B68D3F80C3181
:102DF000FA681A6000233B613B7C43F001033B749B
:102E00007B681B697A68126951683A69D2430A4043
:102E10005A600A4B1B689B697868984700237B615E
:102E2000FB7D43F08003FB757B68DB687A695A6140
:102E3000012318461837BD4680BD00BF4C00002056
:102E400080B586B000AF78600023FB727B6893F892
:102E50001231FB72274B1B685B69786898477B6867
:102E60001B699B68FB6000237B617B7D43F008034B
:102E70007B757B68DB687A695A617B689B7A002B7B
:102E800032D03B7BC3F30003DBB2012B2CD17B6838
:102E900093F81531012B27D1FB7ADBB2032B23D119
:102EA00000233B613B7C43F001033B747B68D3F818
:102EB0000C317A68D2F80C2111683A690A431A6019
:102EC0003B7C43F002033B747B68D3F80C317A6897
:102ED000D2F80C2111683A690A431A60064B064A77
:102EE000126942F006021A61012318461837BD46DE
:102EF00080BD00BF4C00002000ED00E080B586B032
:102F000000AF786000233B610023BB607868FEF768
:102F100003FA7861B4E07B6903F00103002B00F051
:102F2000A9803B69DBB27868194600F071FB034663
:102F3000BB603B7AC3F30003DBB2002B32D03B69AA
:102F4000012202FA03F3FB607B681B697A6812694D
:102F5000516BFA68D2430A405A630023BB603B7A44
:102F600043F001033B727A683B6904339B001344CE
:102F70009B68BA689A60474B1B685B683A69D2B233
:102F80007868114698477B68DB78012B0AD13B694A
:102F9000002B07D17B6893F81131042B02D178689C
:102FA000FEF7D0F93B7AC3F3C003DBB2002B0DD0A0
:102FB0000023BB603B7A43F008033B727A683B69AD
:102FC00004339B0013449B68BA689A603B7AC3F34E
:102FD0000013DBB2002B0DD00023BB603B7A43F023
:102FE00010033B727A683B6904339B0013449B686F
:102FF000BA689A603B7AC3F38013DBB2002B0DD022
:103000000023BB603B7A43F040033B727A683B6924
:1030100004339B0013449B68BA689A603B7AC3F3FD
:103020004003DBB2002B0DD00023BB603B7A43F0A2
:1030300002033B727A683B6904339B0013449B682C
:10304000BA689A603B7AC3F3C013DBB2002B11D08D
:103050007868396900F064F90023BB603B7A43F07B
:1030600080033B727A683B6904339B0013449B687E
:10307000BA689A603B6901333B617B695B087B619D
:103080007B69002B7FF447AF012318461837BD46F4
:1030900080BD00BF4C00002080B586B000AF7860D6
:1030A00000233B610023FB607868FEF703F9786139
:1030B0008FE07B6903F00103002B00F084803B6903
:1030C000DBB278681946FEF70BF90346FB603B7BE1
:1030D000C3F30003DBB2002B48D00023FB603B7B33
:1030E00043F001033B737A683B6914339B0013443C
:1030F0005B68FA689A607B68DB78012B1FD17A687D
:103100003B6914339B0013445B681B69BB6079689F
:103110003A6913469B001344DB000B4403F55E73CE
:103120005A68BB68C3F31203D11A78683A69134628
:103130009B001344DB00034403F562735960294B81
:103140001B681B683A69D2B27868114698477B6859
:10315000DB78012B0AD13B69002B07D17B6893F800
:103160001131052B02D17868FEF7ECF83B7BC3F3F5
:103170004003DBB2002B0DD00023FB603B7B43F010
:1031800002033B737A683B6914339B0013445B680A
:10319000FA689A603B7BC3F3C003DBB2002B12D00A
:1031A000104B1B689B68786898470023FB603B7B4B
:1031B00043F008033B737A683B6914339B00134464
:1031C0005B68FA689A603B6901333B617B695B0825
:1031D0007B617B69002B7FF46CAF012318461837A5
:1031E000BD4680BD4C00002080B584B000AF786043
:1031F000094B1B68DB68786898470023FB603B7BC2
:1032000043F008033B737B68DB68FA685A6101236B
:1032100018461037BD4680BD4C00002080B586B0F2
:1032200000AF786000233B613B7C43F010033B74AC
:103230007B68DB687A68D26891693A69D2430A4050
:103240009A617B68DB681B6AFB603B7BC3F303030B
:10325000DBB21A4613469B001344DB0003F55C7394
:103260007A68134404337B61BB7BC3F34303DBB253
:10327000013B052B45D801A252F823F00333000887
:1032800095320008033300080333000803330008B5
:10329000DF320008BB89C3F30A139BB2002B1DD099
:1032A0007B69DA68BB89C3F30A139BB2786811465D
:1032B0001A46FDF709F87B69DA68BB89C3F30A137C
:1032C0009BB21A447B69DA607B699A69BB89C3F354
:1032D0000A139BB21A447B699A6113E012E07B687F
:1032E00003F2CC53786819460822FCF7EDFF7B699E
:1032F0009A69BB89C3F30A139BB21A447B699A612A
:1033000000E000BF7B68DB687A68D26891693A693F
:103310000A439A61012318461837BD4680BD00BF95
:1033200080B586B000AF7860396000237B610023F0
:10333000BB603A6813469B001344DB0003F58C73B3
:103340007A6813440433FB60FB685A69FB689B6925
:10335000D31A7B61FB689A687B699A4202D2FB6848
:103360009B687B617B6903339B083B617A683B68A0
:1033700004339B0013449B689B69BB602EE0FB6891
:103380005A69FB689B69D31A7B61FB689A687B6901
:103390009A4202D2FB689B687B617B6903339B087E
:1033A0003B61FB68D9683B68DAB27B699BB278689D
:1033B000FCF752FFFB68DA687B691A44FB68DA6045
:1033C000FB689A697B691A44FB689A617A683B6872
:1033D00004339B0013449B689B69BB603B891A467E
:1033E0003B699A4209D9FB689A69FB685B699A4212
:1033F00003D2FB685B69002BC1D101231846183743
:10340000BD4680BD80B58AB000AF786000233B61C7
:1034100000233B620023FB610023BB6100237B612F
:103420000023FB603B7C43F001033B747B681B691A
:103430007A68126951683A69D2430A405A607868DA
:103440000021FDF7FDF800237B6212E07A687B6AB9
:1034500004339B0013449B68FF229A607A687B6A5E
:1034600014339B0013445B68FF229A607B6A01332C
:103470007B627B685B781A467B6A9A42E6D87B68F7
:103480001B694FF0FF329A613B8C012262F30F03FC
:103490003B847B8C012262F30F037B847B681B6976
:1034A0003A6ADA613B7F43F008033B773B7F43F0A6
:1034B00001033B773B7F43F002033B777B681B694B
:1034C000FA695A613B7E43F001033B763B7E43F051
:1034D00008033B763B7E43F002033B767B681B6927
:1034E000BA691A617B681B691B687B61BB8A6FF3D1
:1034F0000A13BB827B681B697A691A607868FDF7DA
:1035000021FF0023FB607B7B43F010037B737B6810
:10351000DB68FA685A61054B1B681B697868984735
:10352000012318462837BD4680BD00BF4C0000204F
:1035300080B584B000AF78607868FDF721FB7B68C8
:10354000DB68DB68BB607868FDF7F6FA0346032B9F
:103550000CD17B6800229A707B684FF400729A80CD
:103560007B7A092262F385037B720AE07B68012281
:103570009A707B6840229A807B7A052262F38503E9
:103580007B727B68DB68BA68DA600023FB607B7B58
:1035900043F020037B737B68DB68FA685A61012380
:1035A00018461037BD4680BD80B584B000AF786046
:1035B0000023FB60084B1B68DB6978689847BB7B7E
:1035C00043F01003BB737B68DB68FA685A61012320
:1035D00018461037BD4680BD4C00002080B584B031
:1035E00000AF78600023FB60084B1B681B6A78689B
:1035F0009847BB7B43F02003BB737B68DB68FA68AA
:103600005A61012318461037BD4680BD4C0000208A
:1036100080B487B000AF78600B46FB707B681B6995
:103620001B697B617B681B695B6B3B61FB783A695B
:1036300022FA03F3DB01DBB27A6913437B61FB7887
:103640007A6804339B0013449B689A687B69134033
:10365000FB60FB6818461C37BD465DF8047B70476D
:1036600080B584B000AF78600B46FB70786881212C
:103670004022022300F008FB786801214022022347
:1036800000F002FB786882210822032300F0FCFA94
:103690000B4BFB60FB68043302221A70FB68053396
:1036A00000221A70074B1B68984778680121064A68
:1036B000402300F073FB002318461037BD4680BD41
:1036C0006C000020980000201809002080B582B00E
:1036D00000AF78600B46FB707868812100F024FB16
:1036E0007868012100F020FB7868822100F01CFB43
:1036F000034B5B689847002318460837BD4680BDDA
:103700009800002080B584B000AF786039603A231B
:10371000FB81404BBB603B681B7803F06003002BD0
:103720003FD0202B37D13B68DB88002B29D03B686A
:103730001B78DBB25BB2002B11DA374B9B683A681F
:10374000527811463A68D2880846344998473B680F
:10375000DB88786831491A4600F032FC19E03B6892
:103760005B781A462E4B1A603B68DB881A462D4B55
:103770001A603B68DB88786828491A4600F054FCD8
:1037800007E0254B9B683A685278104600210022DA
:10379000984700233AE078683968FFF7F9F902237F
:1037A00034E03B685B780A2B18D00B2B1CD0062B1F
:1037B0002BD13B685B881B0A9BB2212B07D11A4B8C
:1037C000BB603B68DB883A2B28BF3A23FB81FB892F
:1037D0007868B9681A4600F0F3FB16E07868134978
:1037E000012200F0EDFB10E03B685B88DBB2002BB0
:1037F00006D13B685B88DBB21A460C4B1A6003E0CB
:1038000078683968FFF7C4F900BF002318461037FD
:10381000BD4680BDB500002098000020580900205A
:10382000F000002048010020BE00002034010020EC
:1038300080B582B000AF78600A4B1B68FF2B0BD0BD
:10384000094B9B68074A1168084A126808460849EC
:103850009847044BFF221A60002318460837BD46DC
:1038600080BD00BFF000002098000020480100202B
:103870005809002080B584B000AF78600B46FB701B
:103880001F4B1B78012B35D11E4B1B68002B03D11E
:103890001B4B00221A702DE01A4B1B68402B11D9CC
:1038A000194B1B68FB814023BB81174B1B6803F13D
:1038B0004002154B1A60134B1B68A3F14002114BD9
:1038C0001A600FE0104B1B68FB810E4B1B68BB811D
:1038D0000D4B1A680B4B1B681A440B4B1A60094BB3
:1038E00000221A60FA89094B1A44BB897868812141
:1038F00000F094FA002318461037BD4680BD00BF83
:1039000044010020400100203C010020600900200B
:1039100080B584B000AF78600B46FB70FA787968A8
:1039200013469B001344DB000B4403F562735B6892
:10393000FB81084B1B69FA8907481146984778684C
:103940000121054A402300F029FA002318461037C8
:10395000BD4680BD980000201809002080B582B0C7
:1039600000AF7860084B1B68591C074A1160052B93
:1039700005D1054B00221A60786800F007F8002393
:1039800018460837BD4680BD4C01002080B584B084
:1039900000AF78602E4B1B78012B56D02D4B1B6847
:1039A000B3F5006F02D12B4B00221A60294B1A6825
:1039B000294B1B689A4203D1254B00221A7044E020
:1039C000244B1A68244B1B689A4206D9214B1B686A
:1039D000C3F50062214B1A6006E01F4B1A681D4BAD
:1039E0001B68D21A1D4B1A601C4B1B68402B11D947
:1039F000184B1B68FB814023BB81164B1B6803F1EE
:103A00004002144B1A60154B1B68A3F14002134B84
:103A10001A600FE00F4B1B68FB81104B1B68BB81CA
:103A20000C4B1A680D4B1B681A440A4B1A600B4B5F
:103A300000221A60064B01221A70FA89084B1A44B8
:103A4000BB897868812100F0E9F91037BD4680BD57
:103A5000440100203C0100203801002040010020EA
:103A60006009002080B483B000AF03463960FB7169
:103A70003B6843221A80034B18460C37BD465DF85D
:103A8000047B7047AC00002080B483B000AF786046
:103A9000034B7A685A610C37BD465DF8047B70476A
:103AA000003C014080B483B000AF7860054A7B6879
:103AB00043F0BF6343F40033D3600C37BD465DF879
:103AC000047B704700ED00E080B485B000AF786003
:103AD0000023FB730023BB730F237B737B68DB78AE
:103AE000002B37D0254BDB68DB4303F4E0631B0A74
:103AF000FB73FB7BC3F10403BB737A7BFB7B42FA52
:103B000003F37B737B685B781A46BB7B02FA03F393
:103B1000FB737B689A787B7B1340DAB2FB7B1343A1
:103B2000FB73FB7B1B01FB73154A7B681B781344FB
:103B3000FA7B83F80023124B7A6812785209D2B2CA
:103B40007968097801F01F01012000FA01F143F8BA
:103B500022100EE00A4B7A6812785209D2B27968C4
:103B6000097801F01F01012000FA01F1203243F829
:103B700022101437BD465DF8047B704700ED00E06D
:103B800000E100E080B584B000AF78600B46FB70C8
:103B9000FB7878681946FCF7C3FB7B68012283F841
:103BA00012217B68002283F814210023FB6024E0AB
:103BB000FA6813469B001344DB0003F58C737A68A4
:103BC00013440433BB60BB6801225A70FB68DAB24D
:103BD000BB681A70FB689AB2BB68DA80BB680022C7
:103BE000DA70BB6840229A60BB680022DA60BB686A
:103BF00000225A61FB680133FB607B685B781A46E0
:103C0000FB689A42D4D80023FB6024E0FA6813468C
:103C10009B001344DB0003F55C737A6813440433A0
:103C2000BB60BB6800225A70FB68DAB2BB681A70CE
:103C3000FB689AB2BB68DA80BB680022DA70BB68A6
:103C400040229A60BB680022DA60BB6800225A6199
:103C5000FB680133FB607B685B781A46FB689A421D
:103C6000D4D87868FCF7D0FC7868FCF713FC786847
:103C70000021FCF74FFD7868FCF7D2FD7868FCF76F
:103C8000A7FC1037BD4680BD80B584B000AF78601A
:103C9000F9703A80BB70FB785BB2002B0DDAFB78D1
:103CA00003F07F0213469B001344DB0003F58C7383
:103CB0007A6813440433FB600CE0FB7803F07F0266
:103CC00013469B001344DB0003F55C737A681344CE
:103CD0000433FB60FB7803F07F03DAB2FB681A70F1
:103CE000FB78DB09DBB21A46FB685A703A88FB683E
:103CF0009A60FB68BA78DA70FB685B78002B04D0B6
:103D0000FB681B781A46FB68DA80BB78022B02D16D
:103D1000FB6800221A717868F968FCF76DFF0023D0
:103D200018461037BD4680BD80B584B000AF7860BE
:103D30000B46FB70FB785BB2002B0DDAFB7803F0CF
:103D40007F0213469B001344DB0003F58C737A68F3
:103D500013440433FB600CE0FB7803F07F0213464E
:103D60009B001344DB0003F55C737A68134404334F
:103D7000FB60FB7803F07F03DAB2FB681A70FB7814
:103D8000DB09DBB21A46FB685A707868F968FCF701
:103D9000A1FF002318461037BD4680BD80B586B010
:103DA00000AFF8607A600A46FA723B81FB7A03F052
:103DB0007F0213469B001344DB0003F55C73FA6833
:103DC000134404337B617B697A68DA603A897B69E2
:103DD0005A617B6900229A617B6900225A70FB7AE2
:103DE00003F07F03DAB27B691A70FB68DB78012B82
:103DF00002D17A687B691A617B691B78002B04D138
:103E0000F8687969FDF7ECF803E0F8687969FCF780
:103E1000A7FF002318461837BD4680BD80B586B081
:103E200000AFF8607A603B600B46FB72FB7A03F0F0
:103E30007F0213469B001344DB0003F58C73FA6882
:103E4000134404337B617B6901225A70FB7A03F0CF
:103E50007F03DAB27B691A707B697A68DA607A6804
:103E60007B691A617B6900229A617B693A685A61B1
:103E70007B691B78002B04D1F8687969FDF7B0F8ED
:103E800003E0F8687969FCF76BFF002318461837E0
:103E9000BD4680BD80B584B000AF78600B46FB7036
:103EA000FB785BB2002B0DDAFB7803F07F02134640
:103EB0009B001344DB0003F58C737A6813440433CE
:103EC000FB600AE0FA7813469B001344DB0003F51D
:103ED0005C737A6813440433FB60FB6801229A70B8
:103EE000FB7803F07F03DAB2FB681A70FB78DB091A
:103EF000DBB21A46FB685A707868F968FDF75AF920
:103F0000002318461037BD4680BD00BF80B584B081
:103F100000AF78600B46FB70FB785BB2002B0DDACC
:103F2000FB7803F07F0213469B001344DB0003F58C
:103F30008C737A6813440433FB600AE0FA78134602
:103F40009B001344DB0003F55C737A68134404336D
:103F5000FB60FB6800229A70FB7803F07F03DAB203
:103F6000FB681A70FB78DB09DBB21A46FB685A70F3
:103F70007868F968FDF762F9002318461037BD46E6
:103F800080BD00BF80B485B000AF78600B46FB7089
:103F90000023FB60FB7803F07F03DAB2BB8962F396
:103FA0000A13BB817B681B697A6812691168FA6819
:103FB0000A431A601437BD465DF8047B704700BFA2
:103FC00080B586B000AFF860B9601346FB8000236F
:103FD000FB75FA88FB68C3F83C21FA88FB68C3F8D4
:103FE0003821FB68022283F81121FB88F868002140
:103FF000BA68FFF713FFFB7D18461837BD4680BD32
:1040000080B586B000AFF860B9601346FB8000232E
:10401000FB75FB88F8680021BA68FFF7FFFEFB7D9F
:1040200018461837BD4680BD80B586B000AFF86031
:10403000B9601346FB800023FB75FA88FB68C3F860
:104040009423FA88FB68C3F89023FB68032283F863
:104050001121FB88F8680021BA68FFF79FFEFB7DFD
:1040600018461837BD4680BD80B586B000AFF860F1
:10407000B9601346FB800023FB75FB88F8680021BC
:10408000BA68FFF78BFEFB7D18461837BD4680BD2A
:1040900080B584B000AF78600023FB737B68042296
:1040A00083F811217868002100220023FFF7B6FE73
:1040B0007868FDF747F9FB7B18461037BD4680BD91
:1040C00080B584B000AF78600023FB737B68052265
:1040D00083F811217868002100220023FFF75EFE9B
:1040E0007868FDF72FF9FB7B18461037BD4680BD79
:1040F00053544D3332205669727475616C20436F8E
:104100006D506F727420696E204653204D6F646548
:104110000000000053544D6963726F656C656374F1
:10412000726F6E6963730000303030303030303081
:10413000303530430000000056435020436F6E6618
:104140006967000056435020496E7465726661636A
:044150006500000006
:1041540005000000B5130008CD130008ED13000896
:10416400051400081D140008351400084D14000837
:10417400D9150008A91600086D1500088D18000847
:10418400E91700085D1800082D1800081119000827
:104194003119000800000000000000002000002089
:1041A400611A0008851A0008D11A0008A91A000823
:1041B400F91A0008211B0008491B0008120100021B
:1041C4000000004083044057000201020301000084
:1041D4000A06000200000040010000000403090474
:1041E40000C2010000000800891E0008991E000892
:1041F400A91E0008012000086120000809024300EC
:10420400020100C032090400000102020100052479
:104214000010010524010001042402020524060003
:1042240001070582030800FF09040100020A0000D7
:10423400000705010240000007058102400000005C
:10424400FF00000061360008CD360008053700087D
:1042540000000000313800087538000811390008E2
:104264005D3900080000000000000000653A000805
:0400000508000000EF
:00000001FF
